:020000040800F2
:1000000068AB0020AD010008DD570008B5390008D5
:10001000515400081D120008096A00080000000081
:10002000000000000000000000000000B55C0008B7
:100030006B13000800000000B95800084D6000086C
:10004000C7010008C7010008C7010008C701000870
:10005000C7010008C7010008AD130008C11300085C
:10006000C7010008D5130008C7010008C701000830
:10007000C7010008C7010008C7010008C701000840
:10008000C7010008C7010008B10A0008000000000D
:10009000000000000000000000000000E91300085C
:1000A000C7010008C7010008C7010008C701000810
:1000B000C7010008C7010008C7010008C701000800
:1000C000C7010008C7010008C7010008C7010008F0
:1000D000C7010008E9690008C70100080000000026
:1000E000C7010008C7010008C701000800000000A0
:1000F000000000000000000000000000C701000830
:1001000000000000C7010008C7010008C70100087F
:1001100000000000000000000000000000000000DF
:1001200021120008C7010008C7010008C701000824
:10013000C7010008000000000000000000000000EF
:10014000000000000000000000000000C7010008DF
:10015000C70100083112000849120008F9690008B7
:10016000C7010008C70100080000000000000000EF
:10017000000000000000000000000000000000007F
:1001800000000000C701000800000000000000009F
:10019000C7010008C7010008DFF80CD000F096FB8B
:1001A000004800475976000868AB002006488047A1
:1001B00006480047FEE7FEE7FEE7FEE7FEE7FEE74C
:1001C000FEE7FEE7FEE7FEE7A561000899010008EB
:1001D0002DE9F05F0546002092469B46884606467C
:1001E000814640241BE0284641464746224600F00F
:1001F00020F853465A46C01A914110D3114618466A
:10020000224600F045FA2D1A67EB01084F462246B8
:100210000120002100F03CFA17EB00094E41201E9E
:10022000A4F10104DFDC484631462A464346BDE8D6
:10023000F09F202A04DB203A21FA02F000217047C7
:1002400021FA02F3D040C2F120029140084319463E
:100250007047D2B201E000F8012B491EFBD2704773
:100260000022F6E710B513460A4604461946FFF782
:10027000F0FF204610BD421C10F8011B0029FBD1E5
:10028000801A704710B5002200E0521C835C8C5C21
:10029000A34201D1002BF8D1D8B2E1B2401A10BD6F
:1002A00070B5064606F0E2FB046805460A22002106
:1002B000304600F00EFA2C6070BD2DE9FE4F8046EE
:1002C00081EA0300C00F0C46009021F0004123F0AA
:1002D0000045B8EB0200A94105D2404621469046B0
:1002E0001C460B46024623F00040104347D0270D22
:1002F000C7F30A00C3F30A510290401A0190402844
:100300006BDAC3F3130040F4801B0098924620B1CF
:100310000023D2EB030A63EB0B0B01985946C0F1A3
:100320004002504600F0B4F906460D465046594684
:10033000019A00F0BCF910EB08006141002487EA43
:10034000115284EAE7731A4340D0009A62B3019ACB
:10035000012A4FEA075215DC001B61EB02014FF046
:10036000004202EA0752CDE90042001C41F580112B
:1003700032462B4600F02BFA03B0BDE8F08F404622
:100380002146F9E7001B61EB0201001C41F58013D7
:1003900000185B412018A2F5001747EB030140EA63
:1003A000D570B6196D4111E06D084FEA360645EA81
:1003B000C0754FEA0752001B61EB0201001C41F5BA
:1003C000801149084FEA30000019514132462B464E
:1003D00003B0BDE8F04F00F0EBB9009801224000F7
:1003E0000023D0EB020263EBE073009821464FEA52
:1003F000E074B8EB000061EB0401E9E783F000432F
:100400005BE781F0004158E72DE9FE4F81EA0304E4
:1004100004F0004421F0004100944FF0000B23F061
:10042000004350EA01045ED052EA03045BD0C3F3F8
:100430000A54C1F30A552C44A4F2F3340194A0FBEE
:100440000254C1F3130141F48011C3F3130343F4C5
:10045000801301FB024400FB034E840A970A44EA1E
:10046000815447EA8357A4FB076802958D0A05FB70
:1004700007854FEA932C04FB0C542705029D4FEA95
:10048000065847EA1637B5EB08056EEB070C870EE2
:10049000920E47EA811742EA8312A7FB0201B6EBEC
:1004A0000B0164EB00042B0D43EA0C335E1844EBA4
:1004B0001C50DA465146E7FB0201C5F313044FEA2C
:1004C0000B3343EA14534FEA0432019C43EA060318
:1004D000A4F10C040294009CCDE900B400F077F97B
:1004E00003B0BDE8F08F00200146F9E72DE9F04D9B
:1004F00081EA030404F0004B21F0004514464FF05C
:10050000000A23F0004150EA050220D054EA01021B
:100510001DD0C5F30A570246C5F31303C1F31300F8
:10052000C1F30A5640F4801543F48013A7EB060884
:10053000101BD64608F2FD3873EB050002D308F114
:10054000010801E092185B41B8F1000F03DA0020C6
:100550000146BDE8F08D00204FF480110646844628
:100560000EE0171B73EB050705D3121B63EB0503A6
:1005700006434CEA010C49084FEA300092185B41EF
:1005800050EA0107EDD152EA030012D082EA0400DA
:1005900083EA0501084305D0101BAB4106D20122B6
:1005A000002306E000224FF0004302E06FF001025A
:1005B00053101AEB06004CEB085110EB0A0041EB0C
:1005C0000B01BDE8F04D00F0F3B80EB5C10F80EAA5
:1005D000E0700844CA07002140F233438DE80E0062
:1005E0000A460B4600F0F3F803B000BD0EB540F22A
:1005F000334102910021CDE900110A460B4600F07B
:10060000E6F803B000BD00F0004230F000400AD030
:10061000C10D01F56071C0F3160042EA0151C20834
:1006200040071143704700200146704701F0004326
:1006300030B421F0004150EA010206D00A0DA2F5C3
:100640006072C1F31301002A02DC30BC0020704745
:10065000440F44EAC104C100E01830BC00EBC250B2
:1006600000F06FB830B50B4601460020202201246F
:1006700009E021FA02F59D4205D303FA02F5491B70
:1006800004FA02F52844151EA2F10102F1DC30BD86
:10069000202A04DB203A00FA02F100207047914042
:1006A000C2F1200320FA03F3194390407047202A37
:1006B00006DBCB17203A41FA02F043EAE07306E08A
:1006C00041FA02F3D040C2F120029140084319469A
:1006D00070472DE9F04791460F46804604460026B4
:1006E00014F8015B2DB100F003F90068405DC0070C
:1006F000F6D12B2D02D02D2D18D0641E4A46394636
:10070000204600F0F9F827B13968A14201D1C7F8B5
:10071000008071054FF002040BD54042002803DD34
:1007200006F0A4F90460A007BDE8F08746F48066EF
:10073000E4E70028F8DA06F099F904606FF0004069
:10074000F2E70029A8BF7047401C490008BF20F00D
:100750000100704710B4B0FA80FC00FA0CF050EAC7
:10076000010404BF10BC704749B1CCF1200421FA48
:1007700004F411FA0CF118BF012121430843A3EB43
:100780000C01CB1D4FEA00614FEA102042BF002050
:1007900010BC704700EBC35010440029A4BF10BC2C
:1007A0007047401C490008BF20F0010010BC704792
:1007B00010B5141E73F1000408DA401C41F1000169
:1007C00092185B411A4301D120F0010010BD2DE9C0
:1007D000F04D92469B4611B1B1FA81F202E0B0FAB7
:1007E00080F220329046FFF753FF04460F4640EA5E
:1007F0000A0041EA0B0153465A46084313D01146FA
:1008000053EA010019D0C8F140025046FFF711FD2C
:1008100005460E46504659464246FFF739FF084303
:1008200005D0012004E020463946BDE8F08D0020C7
:10083000054346EAE0762C4337430A986305E40A09
:10084000A0EB08000022FD0A44EA47540A3002D512
:1008500000200146E9E7010510196941DDE9084575
:1008600000196941BDE8F04DA2E7C1F30A52C1F396
:10087000130140F2FF3341F480119A4202DA002062
:100880000146704740F233439A42A2F2334202DCFF
:100890005242FFF7CEBCFFF7FBBE000030B5041E8E
:1008A00071F1000404DB4FF00044404264EB0101AD
:1008B000141E73F1000405DB1C464FF00043524246
:1008C00063EB0403994208BF904230BD064C074DCC
:1008D00006E0E06840F0010394E807009847103410
:1008E000AC42F6D3FFF75CFC387E0008587E000867
:1008F00000487047EC7D00082DE9F05F82460078E3
:10090000002715468B460AF10104B946302801D06C
:100910009DB113E014F8010B0127782803D0582863
:1009200001D045B10AE00DB1102D07D100271025E7
:1009300014F8010B02E0082500E00A250026B04665
:100940000EE005FB080005FB06F1012701EB104650
:100950001FFA80F8B6F5803F00D3B94614F8010BB2
:10096000294600F018F80028EBDABBF1000F05D09B
:100970000FB1641E00E05446CBF80040B9F1000FFF
:1009800006D006F073F802210160C81EBDE8F09F92
:1009900048EA0640FAE73A2800D2303820F0200230
:1009A000412A01D3A2F13700884201D34FF0FF3032
:1009B000704770B58C1810F8015B15F0070301D172
:1009C00010F8013B2A1106D110F8012B03E010F8B2
:1009D000016B01F8016B5B1EF9D12B0705D40023D5
:1009E000521E0DD401F8013BFAE710F8013BCB1A77
:1009F000921C03E013F8015B01F8015B521EF9D56C
:100A0000A142D8D3002070BD70B50546AC6B206CF8
:100A100000F0500050BB206C40F40070206420684F
:100A2000806800F04050E8B9207ED8B92068C06ADC
:100A300000F4700020B12068806800F4806088B9FC
:100A40002068406820F0200021684860206C20F475
:100A500080702064206C00F4805018B9206C40F045
:100A600001002064204600F09FFD0BE0206C00F0A8
:100A7000100018B1204600F0A0FD03E0A06BC16C8F
:100A80002846884770BD70B50546AC6B4020206491
:100A9000606C40F004006064204600F08EFD70BD84
:100AA00070B50446A56B284600F086FD70BD0000B9
:100AB00010B5034800F082FD01200249087010BD06
:100AC00098010020C100002055494A6822F44032B4
:100AD0004A604A6843681A434A600268526822F4CE
:100AE000807203685A6002685368026943EA02220E
:100AF00003685A600268526822F0407203685A60C4
:100B00000268526883681A4303685A6002689268F0
:100B100022F4006203689A6002689268C3681A430C
:100B200003689A603F4B826A9A4218D002689268C2
:100B300022F0706203689A6002689268836A1A43BE
:100B400003689A600268926822F0405203689A60D3
:100B500002689268C36A1A4303689A600BE00268ED
:100B6000926822F0706203689A600268926822F0CC
:100B7000405203689A600268926822F00202036899
:100B80009A6002689368027E43EA420203689A60B0
:100B90002022125CA2B10268526842F4006203682B
:100BA0005A600268526822F4604203685A60026820
:100BB0005368426A521E43EA423203685A6005E0B3
:100BC0000268526822F4006203685A600268D26ABE
:100BD00022F470020368DA620268D36A828B521EC2
:100BE00043EA02520368DA620268926822F40072F1
:100BF00003689A600268936890F8302043EA4222C2
:100C000003689A600268926822F4806203689A60BE
:100C100002689368426943EA822203689A607047D7
:100C2000002301400100000F10B52DED0A8BB0EE3E
:100C3000408A18EE100AFFF7E6FC41EC1C0B9FED12
:100C4000100B53EC102BFFF7D9FB41EC1B0B9FED66
:100C50000E0B53EC102BFFF749FC41EC1A0B9FEDE8
:100C60000C0B53EC102BFFF728FB41EC190BFFF793
:100C7000DDFC08EE900AB0EE680ABDEC0A8B10BDF0
:100C800052B81E85EB51E83F7B14AE47E17A643FD2
:100C9000000000000000394010B52DED068B5449CE
:100CA000098840F6E44201FB02F0C11700EB9151C4
:100CB000891200EE101AB8EEC00A4E4981ED000A02
:100CC0004B49498801FB02F0C11700EB9151891291
:100CD00000EE101AB8EEC00A464981ED010A4449F7
:100CE000898801FB02F0C11700EB9151891200EED7
:100CF000101AB8EEC00A3F4981ED020A3C49C98882
:100D000001FB02F0C11700EB9151891200EE101A9D
:100D1000B8EEC00A374981ED030A3549098901FB5C
:100D200002F0C11700EB9151891200EE101AB8EED3
:100D3000C00A304981ED040A084690ED010A10EE20
:100D4000101A0846FFF75FFC9FED2B0B53EC102B9E
:100D5000FFF75AFB9FED2A0B53EC102BFFF7C6FB56
:100D6000FFF764FC28490860224890ED020A10EE63
:100D7000101A0846FFF747FC9FED240B53EC102B8D
:100D8000FFF742FB9FED1E0B53EC102BFFF7AEFB62
:100D9000FFF74CFC1F490860164890ED030A10EE5F
:100DA000101A0846FFF72FFC9FED1B0B53EC102B7E
:100DB000FFF72AFB9FED120B53EC102BFFF796FB6E
:100DC000FFF734FC164908600A4890ED040ADFED8D
:100DD000150A80EE201A144880ED001A90ED000AE2
:100DE000FFF722FF104880ED000ABDEC068B10BD16
:100DF000B4050020F40500206666666666E61840C5
:100E00000000000000408F409400002052B81E8572
:100E1000EB51174098000020AE47E17A14AE17401E
:100E20009C00002000007A44A000002010B52DEDA9
:100E30000A8B9FED710AB0EE408A7048018870A05D
:100E400006F00AFF6D48418871A006F005FF6B4867
:100E5000818873A006F000FF6848C18874A006F07E
:100E6000FBFE6648018976A006F0F6FE6349088815
:100E7000FFF7BCFB41EC1C0B9FED750B53EC102BEB
:100E8000FFF7C2FA41EC1B0B9FED730B53EC102BD9
:100E9000FFF7BAFA41EC1A0B9FED710B53EC102BD4
:100EA000FFF724FB41EC190BFFF7C0FB08EE100A1B
:100EB000B0EE480A6CA006F045FA50494888FFF7A2
:100EC00095FB41EC1C0B9FED620B53EC102BFFF7D5
:100ED0009BFA41EC1B0B9FED660B53EC102BFFF7BD
:100EE00093FA41EC1A0B9FED5E0B53EC102BFFF7BE
:100EF000FDFA41EC190BFFF799FB08EE100AB0EE72
:100F0000480A5DA006F01EFA3C498888FFF76EFB90
:100F100041EC1C0B9FED4E0B53EC102BFFF774FABA
:100F200041EC1B0B9FED4C0B53EC102BFFF76CFAB5
:100F300041EC1A0B9FED4A0B53EC102BFFF7D6FA3E
:100F400041EC190BFFF772FB08EE100AB0EE480AED
:100F50004BA006F0F7F92949C888FFF747FB41EC99
:100F60001C0B9FED3B0B53EC102BFFF74DFA41ECA4
:100F70001B0B9FED450B53EC102BFFF745FA41EC93
:100F80001A0B9FED370B53EC102BFFF7AFFA41EC28
:100F9000190BFFF74BFB08EE100AB0EE480A3CA015
:100FA00006F0D0F915490889FFF720FB41EC1C0B2E
:100FB0009FED270B53EC102BFFF726FA41EC1B0B90
:100FC0009FED350B53EC102BFFF71EFA41EC1A0B7B
:100FD0009FED230B53EC102BFFF788FA41EC190B14
:100FE000FFF724FB08EE100AB0EE480A2CA006F02A
:100FF000A9F9BDEC0A8B10BD00000000B40500206B
:10100000434F4E54525F3020202020203A000000F1
:10101000434F4E54525F3120202020203A000000E0
:10102000434F4E54525F3220202020203A000000CF
:10103000434F4E54525F3320202020203A000000BE
:10104000434F4E54525F3420202020203A000000AD
:101050006666666666660A4052B81E85EB511740A2
:101060000000000000009040616463303A0000001E
:101070006666666666E61840616463313A000000A1
:10108000616463323A000000AE47E17A14AE174063
:10109000616463333A000000000000000000F03F8C
:1010A000616463343A0000002DE9F04105460024F4
:1010B00001260027A046B5FBF6F71A4802F01EFFEE
:1010C00018494F83084606F004FA002220211648EA
:1010D00000F09EFF01225102134800F099FF052401
:1010E0001CE0214611A006F0CFFD0E4850F8241058
:1010F0000FA006F0FDFD0B4951F8240006F054FC4A
:1011000001222021084800F083FF012000F02EF981
:1011100000222021044800F07BFF641E002CE0DA4E
:10112000BDE8F0813C8B002000080240525B0000CB
:101130005D3A000070B50546002436480570E84366
:10114000C4B204F0010028B101229102324800F03B
:101150005FFF05E000224FF480612F4800F058FF48
:10116000C4F3400028B10122D1022B4800F050FF07
:1011700005E000224FF40061274800F049FFC4F366
:10118000800028B101221103234800F041FF05E04F
:1011900000224FF48051204800F03AFFC4F3C00011
:1011A00028B1012251031C4800F032FF05E0002263
:1011B0004FF40051184800F02BFFC4F3001028B181
:1011C00001229103144800F023FF05E000224FF4B0
:1011D0008041114800F01CFFC4F3401028B10122E7
:1011E000D1030D4800F014FF05E000224FF4004148
:1011F000094800F00DFF01225102074800F008FFE6
:10120000642006F095F800224FF40071024800F0C7
:10121000FFFE70BD5A000020000C024000BFFEE738
:1012200010B5024800F00EFC10BD0000E0010020E7
:1012300010B5002002490870024800F003FC10BD00
:10124000340000201405002010B500200249087069
:10125000024800F0F7FB10BD1C000020B404002081
:101260000146087810381823B0FBF3F20848805C78
:10127000C865032A05D908686FF30900001D886551
:1012800003E008686FF309008865886D7047000007
:10129000487D0008014600208A6A8B69CBB932B1CB
:1012A000012A0DD0022A03D0032A10D10EE000BF7C
:1012B000CB6A03F08073B3F1807F00D1012007E097
:1012C000CB6AB3F1C07F00D1012001E000E000BF94
:1012D00034E08B69B3F5005F1AD132B1012A07D02F
:1012E000022A03D0032A11D10AE000BF01200EE038
:1012F000CB6A03F08073B3F1807F00D1012006E058
:10130000CB6AB3F1C07F00D1012000E000BF15E03F
:1013100032B1012A05D0022A04D0032A0CD103E0FD
:1013200000BF00BF012008E0CB6A03F08073B3F177
:10133000807F00D1012000E000BF00BF704730B5C2
:101340000468246824F4802405682C6004686360C1
:101350008468402C04D10468A2600468E16003E062
:101360000468A1600468E26030BD7047034908600A
:1013700000BF024909680029FBD17047080000201E
:1013800000B5014600220DE0FA2000F00EF8FA2028
:1013900000F00BF8FA2000F008F8FA2000F005F849
:1013A000501C82B28A42EFDB00BD704710B50120AD
:1013B00000F02EFD01200149087010BDB80000208A
:1013C00010B5022000F024FD01200149087010BD75
:1013D000B900002010B5082000F01AFD01200149D5
:1013E000087010BDBB00002010B54FF4807000F0F5
:1013F0000FFD01200149087010BD0000C000002051
:101400007047704738B502460020009000BF92F840
:101410003C00012801D1022038BD012082F83C00A7
:1014200000BF0868092816D91068C0680C780A3C03
:1014300004EB44050724AC40A0431468E0600C783A
:101440000A3C04EB44048868A0401468E468204324
:101450001468E06013E0106800690C7804EB440540
:101460000724AC40A043146820610C7804EB4404CA
:101470008868A04014682469204314682061486883
:10148000072817D21068406B0C79641E04EB8405A2
:101490001F24AC40A04314686063088880B20C79B4
:1014A000641E04EB8404A0401468646B2043146839
:1014B000606331E048680D2817D21068006B0C7922
:1014C000E41F04EB84051F24AC40A0431468206390
:1014D000088880B20C79E41F04EB8404A0401468EF
:1014E000246B20431468206316E01068C06A0C79EE
:1014F0000D3C04EB84051F24AC40A0431468E0625B
:10150000088880B20C790D3C04EB8404A040146878
:10151000E46A20431468E0621E4B1F4C1068A0422E
:101520000AD10868122807D1586820F400005860D2
:10153000586840F480005860174C1068A04222D1CF
:10154000164C0868A04202D0086811281BD15868C0
:1015500020F480005860586840F4000058600F4C38
:101560000868A0420FD10E4800680E4CB0FBF4F0A2
:1015700000EB80004000009002E00098401E0090C8
:1015800000980028F9D100BF002082F83C0000BF7D
:1015900000BF41E70023014000200140120000107D
:1015A0009001002040420F0002490968491C014A8D
:1015B00011607047E80000207047704770B504461E
:1015C0000025002620680068C0F3400520684068B8
:1015D000C0F3401695B38EB3206C00F0100018B91C
:1015E000206C40F4007020642068806800F0405057
:1015F000E8B9207ED8B92068C06A00F4700020B134
:101600002068806800F4806088B92068406820F015
:10161000200021684860206C20F480702064206CD9
:1016200000F4805018B9206C40F00100206420467E
:10163000FFF7BAFF6FF012002168086020680068A9
:10164000C0F3800520684068C0F3C016E5B3DEB380
:10165000206C00F0100018B9206C40F40050206499
:101660002068806800F4401038BB2068806B00F46C
:10167000401020B12068806800F48060E8B92068DC
:10168000406800F48060C0B92068806800F0405075
:1016900098B9207E88B92068406820F080002168D1
:1016A0004860206C20F480502064206C00F480702E
:1016B00018B9206C40F0010020642046FFF7A1FE1D
:1016C0006FF00C00216808602068006800F00105D8
:1016D00020684068C0F3801685B17EB1206800683C
:1016E00000F0010050B1206C40F4803020642046AE
:1016F00000F052F86FF0010021680860206800686F
:10170000C0F3401520684068C0F380667DB176B1B3
:10171000606C40F0020060646FF020002168086097
:101720002046FFF74AFF6FF020002168086070BD77
:1017300070B5044600250CB9012070BD1549A06A9A
:10174000884200D000BF206C30B9204600F026F857
:101750000020606484F83C00206C00F0100088B920
:10176000206C20F4885040F0020020642046FFF7EF
:10177000ABF900206064206C20F0020040F0010012
:10178000206400E0012500BF002084F83C0000BF79
:101790002846D2E70100000F7047000010B586B060
:1017A0000446142101A8FEF75BFD444920688842E5
:1017B0007ED100BF002000904148006840F4807056
:1017C0003F4908600846006800F48070009000BF40
:1017D00000BF00BF0020009039481438006840F076
:1017E00004003749143908600846006800F0040016
:1017F000009000BF00BF00BF0020009008460068B6
:1018000040F0800008600846006800F0800000900A
:1018100000BF00BF00BF002000900846006840F0F5
:10182000010008600846006800F00100009000BF59
:1018300000BF00BF002000900846006840F0020092
:1018400008600846006800F00200009000BF00BF7A
:101850000F200190032002900020039001A9194855
:1018600000F0E4FA18481949086000204860002197
:1018700016488160C1604FF4806101614900416197
:10188000890081614911C16109020162002141623F
:1018900000F0F8F908B1FFF7B3FD00BF0B48A063F3
:1018A000846300BF00221146122000F04FFF00E0C9
:1018B00002E0122000F03AFF06B010BD0020014007
:1018C000443802400000024010640240E001002061
:1018D000F8B504460D4616460020009000BF94F867
:1018E0003C00012801D10220F8BD012084F83C0011
:1018F00000BF2068806800F00100A0B920688068FF
:1019000040F00100216888603D4800683D49B0FB17
:10191000F1F000EB4000009002E00098401E0090C3
:1019200000980028F9D12068806800F001000028A4
:1019300064D0206C40F20161884340F480702064E0
:101940002068406800F4806028B1206C20F40050CA
:1019500040F480502064206C00F48050B0F5805F2B
:1019600004D1606C20F00600606401E00020606437
:1019700000BF002084F83C0000BF234F2348A16B28
:10198000C8632348A16B08642248A16BC8646FF048
:101990002200216808602068406840F0806021686B
:1019A00048602068806840F4807021688860226800
:1019B00002F14C0133462A46A06B00F0D9F9786851
:1019C00000F01F0058B92068806800F0405028B926
:1019D0002068806840F08040216888600EE00E49F1
:1019E000206888420AD12068806800F0405028B9F9
:1019F0002068806840F0804021688860002073E79C
:101A00009001002040420F0000230140090A000815
:101A1000A10A0008870A000800200140014691F849
:101A20003500022803D0802048650120704705203A
:101A300081F835000868006820F001000A6810602D
:101A40000020F3E7F8B50446002000908C480068B9
:101A50004FF41651B0FBF1F7A56D2E6894F85C10A9
:101A600008208840304098B12068006800F00400E9
:101A700070B12068006820F004002168086094F8C4
:101A80005C1008208840A860606D40F0010060652F
:101A900094F85C1001208840304068B120684069AB
:101AA00000F0800040B194F85C1001208840A860EC
:101AB000606D40F00200606594F85C10042088407E
:101AC000304068B12068006800F0020040B194F82E
:101AD0005C1004208840A860606D40F004006065E0
:101AE00094F85C1010208840304078B3206800687B
:101AF00000F0080050B394F85C1010208840A860F3
:101B00002068006800F4802080B12068006800F43C
:101B1000002028B9206CC8B12046216C884715E008
:101B2000A06C98B12046A16C88470FE0206800683F
:101B300000F4807028B92068006820F0080021684F
:101B40000860206C10B12046216C884794F85C1026
:101B5000202088403040002865D02068006800F0D0
:101B6000100000285FD094F85C1020208840A86006
:101B700094F83500052828D12068006820F0160068
:101B8000216808602068406920F080002168486171
:101B9000206C08B9A06C28B12068006820F008000B
:101BA0002168086094F85C103F208840A86000BF5E
:101BB000002084F8340000BF012084F83500206D37
:101BC00010B12046216D8847F8BD2068006800F4F8
:101BD000802080B12068006800F4002028B9606C83
:101BE00010B12046616C88471DE0E06BD8B12046FB
:101BF000E16B884717E02068006800F4807068B9DE
:101C00002068006820F010002168086000BF0020F4
:101C100084F8340000BF012084F83500E06B10B177
:101C20002046E16B8847606D38B3606D00F00100BD
:101C3000F0B1052084F835002068006820F001002C
:101C40002168086000BF0098401C0090B84200D98D
:101C500005E02068006800F001000028F3D100BF13
:101C600000BF002084F8340000BF012084F8350054
:101C7000E06C10B12046E16C884700BFA4E700008B
:101C8000900100202DE9F0410446002500F0C6F93E
:101C9000074614B90120BDE8F081606A00B100BFB9
:101CA00000BF002084F8340000BF022084F8350013
:101CB0002068006820F00100216808600AE000F058
:101CC000ADF9C01B052805D920206065032084F8E4
:101CD0003500E0E72068006800F001000028EED140
:101CE0002068056821480540D4E901010843E168FE
:101CF00008432169084361690843A1690843E16910
:101D00000843216A08430543606A042803D1D4E9E3
:101D10000B0108430543206805602068456925F0EC
:101D20000705606A0543606A04280DD1A06A05436F
:101D3000E06A48B12046FFF7ADFA28B1402060655F
:101D4000012084F83500A6E7206845612046FFF7AA
:101D500087FA064694F85C103F208840B060002067
:101D60006065012084F83500002094E73F8010F082
:101D70002DE9F04704460D4616461F464FF0000871
:101D8000D4F8589000BF94F83400012802D1022002
:101D9000BDE8F087012084F8340000BF94F83500D6
:101DA00001282BD1022084F83500002060653B46D5
:101DB000324629462046FFF7C2FA94F85C103F20CD
:101DC0008840C9F808002068006840F016002168C3
:101DD00008602068406940F0800021684861206CFC
:101DE00028B12068006840F0080021680860206879
:101DF000006840F001002168086006E000BF002094
:101E000084F8340000BF4FF002084046C0E7704736
:101E100010B5044604480068204020B10248046020
:101E20002046FFF7F4FF10BD143C0140F8B503460F
:101E30000A460025002400200021CDE0012606FAF4
:101E400001F5166806EA0504AC4273D15668022E05
:101E500002D05668122E13D1CF0803F1200656F88F
:101E600027004E07F70E0F26BE40B0434F07FF0E68
:101E70001669BE403043CF0803F1200646F827001C
:101E800018684F000326BE40B043167906F00306DB
:101E90004F00BE40304318605668012E08D0566887
:101EA000022E05D05668112E02D05668122E13D17C
:101EB00098684F000326BE40B0434F00D668BE402E
:101EC00030439860586801268E40B0431679C6F3B7
:101ED00000168E4030435860D8684F000326BE403D
:101EE000B0434F009668BE403043D860566806F055
:101EF0008056B6F1805F6ED100BF00260096384E46
:101F0000366846F48046364F3E603E46366806F4F4
:101F10008046009600BF00BF324E8F0856F827005B
:101F20008E07370F0F26BE40B0432F4EB34202D16B
:101F3000002615E04FE02D4EB34201D101260FE0FF
:101F40002B4EB34201D102260AE02A4EB34201D100
:101F5000032605E0284EB34201D1042600E00726FF
:101F60008F073F0FBE4030431E4E8F0846F82700B4
:101F7000224E3068A043566806F48036B6F5803F9E
:101F800000D120431D4E3060361D3068A043566896
:101F900006F40036B6F5003F00D12043174E361D3B
:101FA0003060361D3068A043566806F48016B6F5DA
:101FB000801F00D12043114E08363060361D306836
:101FC000A043566806F40016B6F5001F00D1204362
:101FD0000A4E0C363060491C1029FFF42FAFF8BDB3
:101FE000443802400838014000000240000402402A
:101FF00000080240000C024000100240003C01407A
:10200000024613690B400BB1012000E0002070472D
:102010000AB1816101E00B048361704701480068E7
:1020200070470000840100202DE9F84F04460F4658
:1020300090461E46FFF7F2FF05464FF0010994F85F
:102040003D0020287DD119230122624920460095B8
:1020500001F0F6FD10B10220BDE8F88F00BF94F842
:102060003C00012801D10220F6E7012084F83C0061
:1020700000BF2068006800F0010028B920680068EF
:1020800040F00100216808602068006820F40060CA
:1020900021680860242084F83D00002020644E4818
:1020A000E06200BF2068006840F48070216808602A
:1020B000334600224FF001112046009501F0C0FD8B
:1020C00048B12068006800F4807010B14FF40070CF
:1020D00020640320C0E707F0FE0021680861FFF7D5
:1020E0009DFF054620684069C0F3400A20684069AA
:1020F000C0F3802B10E0FFF791FF401BB04200D8E7
:1021000016B9A02084F83D0020684069C0F3400A59
:1021100020684069C0F3802B94F83D00A02805D0CA
:10212000BAF1000F02D1BBF1000FE4D0202084F8F7
:102130003D0020684069C0F3400028B32068006873
:1021400000E044E040F400702168086000BF002017
:10215000009020684069009020688069009000BF6E
:1021600000BF192301221B492046009501F068FD9C
:1021700008B1012070E7202084F83D0000BF002056
:1021800084F83C0000BF67E72068006840F40070F6
:10219000216808606FF4806021684861192301227A
:1021A0000C492046009501F04BFD08B1012053E792
:1021B00009F10109C145FFF475AF202084F83D0005
:1021C00000BF002084F83C0000BF012044E702204B
:1021D00042E70000020010000000FFFF2DE9F84375
:1021E0000446894617469846089EFFF717FF05469E
:1021F00094F83D0020287DD119230122B2492046C0
:10220000009501F01DFD10B10220BDE8F88300BF6C
:1022100094F83C00012801D10220F6E7012084F85F
:102220003C0000BF2068006800F0010028B9206869
:10223000006840F00100216808602068006820F410
:10224000006021680860222084F83D00102084F896
:102250003E00002020646762A4F82A80608D2085FB
:102260009A48E0622B4632464946204601F0C4FBBC
:1022700008B10120C9E7208D88B900BF0020009077
:1022800020684069009020688069009000BF00BF0E
:102290002068006840F400702168086047E0208DE5
:1022A000012817D12068006820F480602168086048
:1022B00000BF00200090206840690090206880697D
:1022C000009000BF00BF2068006840F400702168E3
:1022D00008602CE0208D022818D12068006820F4C6
:1022E0008060216808602068006840F40060216810
:1022F000086000E0E6E000BF002000902068406930
:10230000009020688069009000BF10E0206800689D
:1023100040F480602168086000BF002000902068C1
:102320004069009020688069009000BF00BFBAE05B
:10233000208D03287ED8208D012815D12A463146CC
:10234000204601F022FD08B101205EE72068006907
:10235000616A0870606A401C6062208D401E2085A2
:10236000608D401E60859EE0208D02282AD1334674
:10237000002257492046009501F062FC08B1012077
:1023800043E72068006840F4007021680860206816
:102390000069616A0870606A401C6062208D401E9E
:1023A0002085608D401E608520680069616A087024
:1023B000606A401C6062208D401E2085608D401E3A
:1023C000608570E03346002241492046009501F0C7
:1023D00037FC08B1012018E72068006820F480600D
:1023E0002168086020680069616A0870606A401CA2
:1023F0006062208D401E2085608D401E60853346C2
:10240000002233492046009501F01AFC08B1012052
:10241000FBE62068006840F40070216808602068CE
:102420000069616A0870606A401C6062208D401E0D
:10243000208500E010E0608D401E60852068006906
:10244000616A0870606A401C6062208D401E2085B1
:10245000608D401E608526E02A463146204601F008
:1024600094FC08B10120D0E620680069616A087018
:10247000606A401C6062208D401E2085608D401E79
:10248000608520684069C0F3800060B12068006901
:10249000616A0870606A401C6062208D401E208561
:1024A000608D401E6085208D00287FF441AF202084
:1024B00084F83D00002084F83E0000BF84F83C0012
:1024C00000BFA2E60220A0E6020010000000FFFF0D
:1024D000040001002DE9F8430446894616461F46CC
:1024E000DDF82080FFF79AFD054694F83D0020288E
:1024F0007ED11923012251492046009501F0A0FB0D
:1025000010B10220BDE8F88300BF94F83C00012818
:1025100001D10220F6E7012084F83C0000BF2068CA
:10252000006800F0010028B92068006840F0010050
:10253000216808602068006820F400602168086055
:10254000212084F83D00102084F83E000020206403
:1025500066626785608D20853948E0622B46424679
:102560004946204601F0E0FA08B10120CAE700BF61
:1025700000200090206840690090206880690090E9
:1025800000BF00BF44E02A464146204601F03DFC22
:1025900050B1206C042805D12068006840F4007018
:1025A000216808600120ADE7606A00782168086151
:1025B000606A401C6062608D401E6085208D401EF8
:1025C000208520684069C0F3800070B1208D60B123
:1025D000606A007821680861606A401C6062608DF2
:1025E000401E6085208D401E20852A46414600E021
:1025F00022E0204601F0F6FA50B1206C042805D103
:102600002068006840F4007021680860012079E7C4
:10261000208D0028B7D12068006840F40070216840
:102620000860202084F83D00002084F83E0000BFB0
:1026300084F83C0000BF65E7022063E70200100059
:102640000000FFFF03480068034909780844014976
:1026500008607047840100208C01002010B50D48EF
:10266000006840F400700B4908600846006840F4B8
:10267000806008600846006840F4807008600320AD
:1026800000F0A2F8002000F007F800F02BF800207E
:1026900010BD0000003C024070B504460E480078B2
:1026A0004FF47A71B1FBF0F00C490968B1FBF0F519
:1026B000284600F060FE08B1012070BD102C07D242
:1026C00000222146501E00F041F80548046001E058
:1026D0000120F2E70020F0E78C01002090010020AB
:1026E0008801002008B500BF002000900E48006857
:1026F00040F480400C4908600846006800F48040BF
:10270000009000BF00BF00BF00200090081F0068BD
:1027100040F08050091F08600846006800F08050B3
:10272000009000BF00BF08BD443802400146084683
:10273000002809DB00F01F0301229A4043099B0097
:1027400003F1E023C3F8002100BF70472DE9F05FDB
:1027500080460D461646002704F06CF907463946B8
:102760002A46334601F00700C0F1070ABAF1040F08
:1027700002D94FF0040A01E0C0F1070AD14600F186
:10278000040ABAF1070F02D24FF0000A01E0A0F1EB
:10279000030AD4464FF0010A0AFA09FAAAF1010A1B
:1027A0000AEA020A0AFA0CFA4FF0010B0BFA0CFBC8
:1027B000ABF1010B0BEA030B4AEA0B04214640463E
:1027C00004F040F9BDE8F09F00BF00F00702064B9F
:1027D00019684FF6FF031940044B0B4343EA0221EB
:1027E000014B196000BF70470CED00E00000FA05D6
:1027F00070B504460D460CB9012070BD58480068FC
:1028000000F00F00A84209D255490D700846006833
:1028100000F00F00A84201D00120EEE7207800F080
:10282000020002281DD1207800F00400042805D100
:102830004C48006840F4E0504A490860207800F0B5
:102840000800082805D14748006840F46040454921
:1028500008604448006820F0F000A168084341493E
:102860000860207800F00100A8B36068012807D153
:102870003C4808380068C0F34040B8B90120BCE7C4
:102880006068022802D06068032807D135480838FC
:102890000068C0F3406048B90120AEE7314808380D
:1028A0000068C0F3400008B90120A6E72D48006881
:1028B00020F00300616808432A490860FFF7AEFB77
:1028C000064609E0FFF7AAFB801B41F288318842E7
:1028D00002D9032091E707E02248006800F00C00CD
:1028E0006168B0EB810FEDD11D48006800F00F006A
:1028F000A84209D91A490D700846006800F00F0077
:10290000A84201D0012078E7207800F004000428D4
:1029100007D11448006820F4E050E16808431149E9
:102920000860207800F00800082808D10D480068E9
:1029300020F46040216940EAC1000A49086000F0C3
:102940003DF808490968C1F30311074A515CC840C2
:10295000064908600020FFF79FFE00204DE70000B9
:10296000003C024008380240507D000890010020E1
:1029700001480068704700009001002000B5FFF793
:10298000F7FF04490968C1F38221034A515CC8403A
:1029900000BD000008380240607D000800B5FFF768
:1029A000E7FF04490968C1F34231034A515CC8405A
:1029B00000BD000008380240607D00082DE9F047A6
:1029C000002400250026A1462548006800F00C00E0
:1029D00020B1042805D008283AD105E0DFF884901A
:1029E00039E0DFF8849036E01D48001F006800F0F1
:1029F0003F041B48001F006800F4800078B11A48AB
:102A00001749091F0968C1F38811A0FB017001462D
:102A1000224600233846FDF7DBFB05460EE0114851
:102A20000F49091F0968C1F38811A0FB0170014615
:102A3000224600233846FDF7CBFB05460848001F19
:102A40000068C0F30140401C4600B5FBF6F902E007
:102A5000DFF8109000BF00BF4846BDE8F0870000D7
:102A6000083802400024F40000127A00F8B5044649
:102A70000CB90120F8BD207800F00100002874D0C6
:102A8000F948006800F00C0004280DD0F6480068F2
:102A900000F00C00082813D1F348001F006800F470
:102AA0008000B0F5800F0BD1EF4808380068C0F304
:102AB0004040002859D06068002856D10120D9E74D
:102AC00000BF6068B0F5803F08D1E748083800686B
:102AD00040F48030E449083908601EE06068B0F5D1
:102AE000A02F0DD1E0480838006840F48020DE496E
:102AF000083908600846006840F4803008600CE03F
:102B0000D9480838006820F48030D749083908606F
:102B10000846006820F48020086000BF606890B11B
:102B2000FFF77CFA054606E0FFF778FA401B6428B9
:102B300001D903209EE7CC4808380068C0F3404024
:102B40000028F1D011E0FFF769FA054606E0FFF72B
:102B500065FA401B642801D903208BE7C248083876
:102B60000068C0F340400028F1D1207800F0020056
:102B700002285FD1BC48006800F00C0058B1BA4888
:102B8000006800F00C0008281CD1B748001F00683E
:102B900000F48000B0B9B44808380068C0F34000C1
:102BA00020B1E068012801D0012063E7AE48083871
:102BB000006820F0F800216940EAC100AA490839FC
:102BC000086037E0E06800B30120A8490860FFF71B
:102BD00025FA054606E0FFF721FA401B022801D935
:102BE000032047E7A04808380068C0F340000028E9
:102BF000F1D09D480838006820F0F800216940EACB
:102C0000C10099490839086014E00020974908601C
:102C1000FFF704FA054606E0FFF700FA401B02281A
:102C200001D9032026E7904808380068C0F3400027
:102C30000028F1D1207800F0080008282CD1606924
:102C4000A8B101208A490860FFF7E8F9054606E0C7
:102C5000FFF7E4F9401B022801D903200AE7824864
:102C60006C300068C0F340000028F1D014E0002070
:102C70007F490860FFF7D2F9054606E0FFF7CEF975
:102C8000401B022801D90320F4E677486C30006825
:102C9000C0F340000028F1D1207800F0040004289F
:102CA00070D1002670483830006800F0805090B92C
:102CB00000BF002000906C483830006840F0805021
:102CC0006949383108600846006800F0805000907B
:102CD00000BF00BF01266748006800F48070B0B9EB
:102CE0006448006840F4807062490860FFF796F914
:102CF000054606E0FFF792F9401B022801D90320A0
:102D0000B8E65C48006800F480700028F2D000BF8C
:102D1000A068012808D154486830006840F00100DC
:102D20005149683108601DE0A06805280DD14E4862
:102D30006830006840F004004B496831086008467C
:102D4000006840F0010008600CE047486830006807
:102D500020F001004449683108600846006820F00E
:102D60000400086000BFA068A8B1FFF757F9054646
:102D700009E0FFF753F9401B41F28831884202D93C
:102D8000032077E626E0384868300068C0F340004A
:102D90000028EED013E0FFF741F9054608E0FFF701
:102DA0003DF9401B41F28831884201D9032061E698
:102DB0002D4868300068C0F340000028EFD1012E94
:102DC00007D129483830006820F080502649383132
:102DD000086000BFA069B8B32348006800F00C0089
:102DE00008285ED0A069022846D100201F49086645
:102DF000FFF714F9054606E0FFF710F9401B02281B
:102E000001D9032036E6184808380068C0F340604E
:102E10000028F1D1D4E907010843616A40EA811131
:102E20000122A06AC2EB500041EA00412C20005D63
:102E300041EA00600C49091F086001200B4908663F
:102E4000FFF7ECF8054607E02DE0FFF7E7F8401B39
:102E5000022801D903200DE6034808380068C0F3B2
:102E600040600028F1D01EE00838024000004742D0
:102E7000800E47420070004000200C490866FFF7B2
:102E8000CDF8054606E0FFF7C9F8401B022801D936
:102E90000320EFE506480068C0F340600028F2D147
:102EA00001E00120E6E50020E4E5000000004742E3
:102EB0000038024010B504460CB9012010BD606A0C
:102EC00000B900BF0021A16294F8510028B9002088
:102ED00084F85000204600F033F8022084F85100B6
:102EE0002068006820F0400021680860D4E90101F2
:102EF0000843E16808432169084361690843218B5D
:102F000001F400710843E1690843216A0843A16A9A
:102F10000843216808600421A06901EA1040616A41
:102F20000843216848602068C06920F40060216877
:102F3000C86100206065012084F851000020BDE7D1
:102F400010B586B00446142101A8FDF789F96D4932
:102F50002068884231D100BF002000906A48006894
:102F600040F48040684908600846006800F48040EA
:102F7000009000BF00BF00BF0020009062481038E2
:102F8000006840F002006049103908600846006897
:102F900000F00200009000BF00BF4FF460400190BD
:102FA0000220029001200390032004900520059048
:102FB00001A95648FEF73AFF34E055492068884297
:102FC00030D100BF002000904F48006840F400401E
:102FD0004D4908600846006800F40040009000BFBA
:102FE00000BF00BF0020009047481038006840F044
:102FF00004004549103908600846006800F00400E4
:10300000009000BF00BF4FF4E050019002200290FA
:1030100000200390032004900620059001A93D485C
:10302000FEF704FF3C492068884231D100BF0020F0
:1030300000903548001D006840F400503249091DD9
:1030400008600846006800F40050009000BF00BF10
:1030500000BF002000902C481038006840F010009D
:103060002949103908600846006800F010000090F7
:1030700000BF00BF64200190022002900020039056
:10308000032004900520059001A92448FEF7CEFEF8
:1030900023492068884232D100BF002000901A489E
:1030A000001D006840F480101749091D086008469B
:1030B000006800F48010009000BF00BF00BF002037
:1030C000009011481038006840F010000E49103987
:1030D00008600846006800F01000009000BF00BFC4
:1030E0004FF4E04001900220029000200390032062
:1030F00004900620059001A90848FEF797FE06B047
:1031000010BD00000038004040380240000402407A
:10311000003C004000080240003401400010024022
:10312000005001402DE9FF5F0446884691461D4648
:103130000E9E012002900020019000BF94F85000E4
:10314000012803D1022004B0BDE8F09F012084F8DB
:10315000500000BFFEF762FF074694F851B0606868
:103160000390AA46BBF1010F0BD00398B0F5827F04
:1031700004D1A06810B9BBF1040F02D00220019065
:10318000DBE0B8F1000F03D0B9F1000F00D015B9A2
:1031900001200190D1E094F85100042802D00520CC
:1031A00084F8510000206065C4F83890E587A58751
:1031B000C4F83080E586A5862064606420680068D5
:1031C00000F04000402805D02068006840F0400032
:1031D00021680860E068B0F5006F4AD1606810B1FE
:1031E000BAF1010F09D1206B00882168C860206BFB
:1031F000801C2063E08E401EE08633E020688068FB
:1032000000F00200022810D1E08E70B1029801286F
:103210000BD1206B00882168C860206B801C206364
:10322000E08E401EE086002002902068806800F05A
:10323000010068B1E08F58B12068C068A16B0880B8
:10324000A06B801CA063E08F401EE08701200290ED
:10325000FEF7E4FEC01BB04204D3701C10B1032083
:1032600001906AE0E08E0028C8D1E08F0028C5D127
:103270004AE0606810B1BAF1010F09D1206B007803
:1032800021680873206B401C2063E08E401EE0869E
:1032900034E02068806800F00200022810D1E08E3F
:1032A00070B1029801280BD1206B00782168087357
:1032B000206B401C2063E08E401EE08600200290C0
:1032C0002068806800F0010068B1E08F58B1206884
:1032D000C068A16B0870A06B401CA063E08F401E0B
:1032E000E08701200290FEF799FEC01BB04201D397
:1032F000701C00B916B9032001901EE0E08E002872
:10330000C7D1E08F0028C4D13A463146204602F0AA
:10331000D5FA20B101200190202060650DE0A06861
:1033200050B900BF002000902068C068009020685D
:103330008068009000BF00BF00BF012084F85100EA
:1033400000BF002084F8500000BF0198FBE604286D
:1033500008D14FF0E021096941F004014FF0E0226B
:10336000116107E04FF0E021096921F004014FF0FD
:10337000E0221161704770B504462546681EB0F121
:10338000807F01D301200FE0681E4FF0E0214861EB
:103390000F214FF0FF3003F055FB00204FF0E021EC
:1033A000886107200861002070BD70470146002237
:1033B000002391F8392091F83A3042EA030070472F
:1033C0002DE9F0470446206805682068C668206833
:1033D00047694FF00008C14605F00F08B8F1000F2B
:1033E0000AD105F0200038B106F0200020B12046B7
:1033F00003F06AF8BDE8F087B8F1000F6ED007F06F
:10340000010018B906F49070002867D005F001009B
:1034100030B106F4807018B1E06B40F00100E06359
:1034200005F0040030B107F0010018B1E06B40F086
:103430000200E06305F0020030B107F0010018B1AE
:10344000E06B40F00400E06305F0080030B107F0E5
:10345000010018B1E06B40F00800E063E06B70B36E
:1034600005F0200028B106F0200010B1204603F03E
:103470002BF820684069C0F38019E06B00F0080069
:1034800010B9B9F1000F23D0204602F0F3FF2068F5
:10349000406900F04000402816D12068406920F0C3
:1034A000400021684861606B50B11748616B086546
:1034B000606BFEF7B3FA10B1606B016D88470CE0EA
:1034C0002046FFF772FF08E02046FFF76EFF04E09A
:1034D0002046FFF76AFF0020E0638BE705F08000DD
:1034E00030B106F0800018B1204603F0F5F981E70D
:1034F00005F0400030B106F0400018B1204602F05F
:10350000C9FF77E700BF75E72563000810B50446DB
:103510000CB9012010BDA06900B100E000BF94F813
:10352000390028B9002084F83800204600F028F837
:10353000242084F839002068C06820F400502168F5
:10354000C860204603F014F82068006920F4904019
:10355000216808612068406920F02A0021684861DC
:103560002068C06840F400502168C8600020E06313
:10357000202084F8390084F83A000020CAE70000CF
:1035800010B586B00446142101A8FCF769FE5E4917
:10359000206888425AD100BF002000905B48006834
:1035A00040F01000594908600846006800F010001B
:1035B000009000BF00BF00BF0020009053481438A7
:1035C000006840F00100514914390860084600685D
:1035D00000F00100009000BF00BF4FF4C0600190F8
:1035E0000220029001200390032004900720059000
:1035F00001A94748FEF71AFC4648474908604FF0C2
:10360000006048604021444881600021C1604FF45F
:1036100080610161002141618161C1614FF48031AC
:10362000016204214162FEF72DFB08B1FDF7E8FEBF
:1036300000BF39482063846300BF00221146252063
:10364000FFF784F82520FFF771F85AE03349206826
:10365000884256D100BF002000902C48006840F0FE
:1036600020002A4908600846006800F02000009009
:1036700000BF00BF00BF002000902448143800683D
:1036800040F004002149143908600846006800F041
:103690000400009000BF00BFC020019002200290F3
:1036A00001200390032004900820059001A91C48E4
:1036B000FEF7BCFB174818381A4908604FF0206025
:1036C00048604021174881600021C1604FF480614B
:1036D0000161002141618161C16101624162FEF7C6
:1036E000D1FA08B1FDF78CFE00BF0E482063846359
:1036F00000BF002211464720FFF728F84720FFF7B8
:1037000015F806B010BD000000100140443802401A
:1037100000000240B8640240B404002000140140DC
:10372000000802401405002010B5034693F83A0043
:1037300020282FD101B10AB9012010BD00BF93F894
:103740003800012801D10220F7E7012083F8380072
:1037500000BF99629A85DA850020D863222083F819
:103760003A0000BF002083F8380000BF1868C06826
:1037700040F480701C68E0601868406940F0010007
:103780001C6860611868C06840F020001C68E06038
:103790000020D2E70220D0E710B504462448844236
:1037A00021D124490978244A1068421C224B1A600E
:1037B000224A115418460068402802D100201946B8
:1037C00008601F480068401C1D490860402804D15B
:1037D0000020086001201B49087001221549144887
:1037E000FFF7A2FF23E01848844220D11749097847
:1037F000174A1068421C164B1A60164A1154184694
:103800000068402802D1002019460860124800686C
:10381000401C11490860402804D1002008600120A4
:103820000E490870012209490748FFF77DFF10BDC6
:10383000F40300201500002020000020B426002002
:10384000280000202C000020740400202D000020FF
:1038500038000020F44600204000002044000020F2
:10386000F7B50446154694F8390020283DD1019853
:1038700000B10DB90120FEBD00BF94F83800012849
:1038800001D10220F7E7012084F8380000BF019839
:103890002062A584E5840020E063212084F83900BB
:1038A0001348216BC8631348216B08641248216BCD
:1038B000C8640020216B086501AE23681A1D3168B9
:1038C0002B46206BFEF754FA6FF040002168086029
:1038D00000BF002084F8380000BF2068406940F035
:1038E0008000216848610020C5E70220C3E700008E
:1038F00089630008BF630008396300087047704798
:103900001CB5012211462948FEF782FB002208213E
:103910002748FEF77DFB002202212448FEF778FBB2
:103920006420FDF723FD012202212048FEF770FBF1
:103930006420FDF71BFD012208211D48FEF768FBEE
:1039400012208DF8000001208DF8010000208DF874
:1039500002008DF803000421684602F0B5FC6420E3
:1039600003F0E6FC10208DF8000000208DF8010027
:103970008DF802008DF803000421684602F0A4FCD3
:103980006420FDF7F3FC002208210948FEF740FB04
:10399000002202210548FEF73BFB6420FDF7E6FC10
:1039A000012208210248FEF733FB1CBD000C024037
:1039B0000010024000BFFEE7014608684069C0F3FE
:1039C0008020B0B16FF480600A6850610020086305
:1039D000202081F83D00002081F83E00086C40F076
:1039E0000400086400BF002081F83C0000BF0120F3
:1039F00070470020FCE700002DE9F84304460D461F
:103A000090461E46E76A2068006840F4806021689E
:103A10000860082F04D0012F02D017F5803F06D18F
:103A20002068006840F480702168086008E0206B1E
:103A3000112805D12068006840F480702168086072
:103A4000434600224FF001112046009600F0F8F89E
:103A500050B12068006800F4807010B14FF400701D
:103A600020640320BDE8F8832069B0F5804F05D1BC
:103A7000E8B240F001002168086147E005F44070B9
:103A8000F02141EAE01021680861334642462549A9
:103A9000204600F018F908B10120E3E7E8B22168F8
:103AA0000861334642461F49891F204600F00BF942
:103AB00008B10120D6E700BF0020009020684069CF
:103AC000009020688069009000BF00BF20680068F7
:103AD00040F4807021680860434600224FF00111D5
:103AE0002046009600F0ACF848B12068006800F469
:103AF000807010B14FF4007020640320B2E705F429
:103B00004070F12141EAE0102168086133464246E5
:103B10000449891F204600F0D6F808B10120A1E72A
:103B200000209FE7080001002DE9F84304460D46F8
:103B300017469846E66A082E04D0012E02D016F5E4
:103B4000803F06D12068006840F4807021680860DA
:103B500008E0206B122805D12068006840F48070CE
:103B6000216808603B4600224FF001112046CDF845
:103B7000008000F065F850B12068006800F48070A3
:103B800010B14FF4007020640320BDE8F883206971
:103B9000B0F5804F04D105F0FE002168086112E005
:103BA00005F44070F02141EAE010216808614346C5
:103BB0003A460B49204600F086F808B10120E4E7B8
:103BC000E8B22168086143463A460549891F204604
:103BD00000F079F808B10120D7E70020D5E7000010
:103BE0000800010070B504460D46164620E0204648
:103BF000FFF7E2FE08B1012070BD681CC0B1FEF7FE
:103C00000DFA801BA84200D895B90020206320201F
:103C100084F83D00002084F83E00206C40F0200035
:103C2000206400BF002084F83C0000BF0120E3E7CF
:103C300020684069C0F380000028D8D00020DBE76E
:103C40002DE9F04104460D4617461E46DDF8188062
:103C50001CE0701CD0B1FEF7E1F9A0EB0800B04207
:103C600000D89EB900202063202084F83D00002069
:103C700084F83E00206C40F02000206400BF00204B
:103C800084F83C0000BF0120BDE8F081C5F3074087
:103C900001280AD120684069A9B20840A9B2884227
:103CA00001D101200BE0002009E020688069A9B261
:103CB0000840A9B2884201D1012000E00020B842AA
:103CC000C7D00020E0E72DE9F04104460D46164636
:103CD0001F463DE020684069C0F38020E8B12068BD
:103CE000006840F40070216808606FF4806021680B
:103CF000486100202063202084F83D00002084F8E3
:103D00003E00206C40F00400206400BF002084F8D6
:103D10003C0000BF0120BDE8F081701CC0B1FEF77F
:103D20007DF9C01BB04200D896B900202063202046
:103D300084F83D00002084F83E00206C40F0200014
:103D4000206400BF002084F83C0000BF0120E2E7AF
:103D5000C5F3074001280AD120684069A9B208408C
:103D6000A9B2884201D101200BE0002009E02068BF
:103D70008069A9B20840A9B2884201D1012000E0BF
:103D800000200028A6D00020C5E770B504460D46E7
:103D9000164632E020684069C0F30010A0B16FF011
:103DA00010002168486100202063202084F83D0035
:103DB000002084F83E00206C206400BF002084F8BE
:103DC0003C0000BF012070BDFEF728F9801BA8420F
:103DD00000D895B900202063202084F83D00002001
:103DE00084F83E00206C40F02000206400BF0020DA
:103DF00084F83C0000BF0120E5E720684069C0F37B
:103E000080100028C6D00020DDE770B504460D46BE
:103E1000164620E02046FFF7CFFD08B1012070BD17
:103E2000681CC0B1FEF7FAF8801BA84200D895B90B
:103E300000202063202084F83D00002084F83E000C
:103E4000206C40F02000206400BF002084F83C007B
:103E500000BF0120E3E720684069C0F3C0100028DC
:103E6000D8D00020DBE7000010B500221021024866
:103E7000FEF7CEF810BD00000010024010B5012280
:103E800010210248FEF7C4F810BD000000100240E7
:103E900070B50446FFF7E8FF200A00F011F8E0B221
:103EA00000F00EF8002000F00BF8012000F008F8F8
:103EB000002000F005F80546FFF7E0FF284670BD3A
:103EC00010B50446204603F0A5FD10BD70B50446AC
:103ED0000D46FFF7C9FF200AFFF7F2FFE0B2FFF738
:103EE000EFFF8020FFF7ECFF0120FFF7E9FF2846F6
:103EF000FFF7E6FFFFF7C2FF012070BD002120F8A9
:103F0000181F40F6B8314180017921F0010101719B
:103F1000017921F0020101710122818862F38D0192
:103F20008180C1886FF30B01891CC180C17921F0A8
:103F30003001C171017A21F00701891D0172017AF6
:103F400021F008010172017A21F010011031017293
:103F50003222018962F34E110181417A21F0800100
:103F60004172817A21F00F01491D8172817A21F01D
:103F7000100110318172817A21F020018172817AE1
:103F800021F0400140318172817A21F080018172FB
:103F9000C17A21F00101C172C17A21F00201C1721E
:103FA000C17A21F00401C172C17A21F008010831FF
:103FB000C172C17A21F01001C172C17A21F02001D1
:103FC000C172C17A21F0C001C17281896FF30B0106
:103FD00096318181417B21F0100110314173417B89
:103FE00021F0E001417308218173C17B21F00101BF
:103FF000C173C17B21F00201C173C17B21F00401B7
:10400000C173C17B21F00801C173C17B21F0300174
:10401000C173C17B21F040014031C173017C21F0AB
:104020000301C91C0174017C21F00C01091D0174FC
:10403000183870477CB505460024002001902846BA
:1040400003F000FB04460020F8490860F84890EDB2
:10405000000ADFEDF80AB4EEE00AF1EE10FA03DC34
:10406000F54800889D282CD90020F44908709FED60
:10407000F40AEF4880ED000A0020F2490860F24996
:104080000870F2490870F24908600120F14908609F
:10409000F14908600020F1490870F1490870F149C0
:1040A0000870F1490860F14908602020F049087063
:1040B000F04908700020F0490870F0490870DE49A6
:1040C000088030E1D9480068285C7E2830D1DB4880
:1040D000007800282CD10120D84908709FEDD80A1B
:1040E000D34880ED000A0020D6490860D649087000
:1040F000D6490870D64908600120D6490860D649DB
:1041000008600020D5490870D5490870D549087065
:10411000D5490860D54908602020D5490870D5499F
:1041200008700020D4490870D4490870C24908803A
:10413000BE480068285CD249C24A12688854BE480A
:104140000088401CBC490880CD48BE490968405CD5
:104150003B280FD1C948007860B9B84800780128D9
:1041600008D10020B54908700120B8490870C2493B
:104170000870DBE0C248B3490968405C3D2805D0BF
:10418000BF48B0490968405C3A2807D1B348007875
:1041900020B90120B1490870B7490870B848A94949
:1041A0000968405C2E280AD1AD48007838B9B34878
:1041B000007820B90120AA490870AF490870B048BA
:1041C000A0490968405C242808D1A648007828B98D
:1041D0000220A44908700120A74908709948006886
:1041E00002286AD9A6488078202866D1A24800789B
:1041F000002862D19B48007802285ED29748007858
:10420000012807D09E488F490968415C9D48904A23
:10421000126881549148007801280AD190480078AA
:1042200038B9974887490968415C9148894A1268BA
:1042300081548A48007801280BD1894800780128E8
:1042400007D18F487F490968405C8A49824A1268D1
:10425000885482480078012809D07D4800682028C9
:104260002BD27B480068401C7949086025E07B48D8
:104270000078012810D17A48007868B9754800683C
:10428000C82809D273480068401C72490860774802
:104290000068401C754908607048007801280CD1FE
:1042A0006F480078012808D16B480068C82804D2FC
:1042B00069480068401C684908606A48007802281C
:1042C0000BD16D48007840B96D485E490968405C83
:1042D00065490860012063490870644800686249C4
:1042E0000968884206D25F480078012802D16349F4
:1042F000087002E000206149087052480068C82830
:1043000004D250480068401C4E4908604748006885
:10431000C82804D245480068401C44490860641E0F
:10432000002055490870002C7FF4CCAE00BF4748F0
:104330000078012878D1524800787E2805D142487B
:10434000007840F00100404908704D4840784E49DF
:104350000978884205D13C48007840F002003A498B
:1043600008703948007803280ED148A14548FBF76A
:1043700089FF50B93E48FBF793FF4649086046481D
:104380000CC846A003F03EFCBFE347A13D48FBF745
:1043900079FF60B93648FBF783FF3E49086008465D
:1043A000016843A003F058FC01F012FBADE344A107
:1043B0003448FBF767FF70B92D48FBF771FF3549AB
:1043C0000860084601683FA003F046FC31490878C0
:1043D000FCF7B0FE99E33EA12A48FBF753FF20BB50
:1043E0002348FBF75DFF2B490860084601683AA0A7
:1043F00003F032FC27480068012805D10122C102E0
:104400003948FDF705FE05E000224FF4006136480B
:10441000FDF7FEFD1F480068012868D10122010355
:104420003148FDF7F5FD68E0BCE36BE06800002073
:1044300088000020000048425C0000206600002048
:1044400000000000600000206400002065000020E3
:104450006C00002070000020740000207C00002010
:104460007D0000207E0000207800002080000020D9
:104470003D480020054900208500002084000020E0
:10448000544700201D4800205100002074696D65CC
:1044900000000000E0000020C800002054494D4505
:1044A0005F5359533A0000007374617475730000D0
:1044B000EFF0E8EDFFEB207374617475733A000060
:1044C00061747400EFF0E8EDFFEB206174743A0062
:1044D00041504C4600000000EFF0E8EDFFEB2041BA
:1044E000504C463A0000000000000240FFE7002266
:1044F0004FF48051F848FDF78BFDF8480078F849F3
:10450000087002E3F7A1F848FBF7BCFE98BBF74838
:10451000FBF7C6FEF149086008460168F4A003F005
:104520009BFBEE480068012805D10122C102EA4840
:10453000FDF76EFD05E000224FF40061E648FDF74F
:1045400067FDE6480068012805D101220103E24821
:10455000FDF75EFD05E000224FF48051DE48FDF7D7
:1045600057FDDE480068012806D101221146E348C4
:10457000FDF74EFD05E020E000220121DF48FDF7B8
:1045800047FDD6480068012805D101220221DB48F9
:10459000FDF73EFD04E000220221D848FDF738FD7A
:1045A000CE480078D6490870CC480078D5490870C4
:1045B000CA480078CA490870A7E2D3A1CA48FBF7E5
:1045C00061FED0B9C948FBF76BFEC44908600846D4
:1045D0000168CEA003F040FBC0480068FCF764FD12
:1045E00000224FF40061BC48FDF712FD00224FF499
:1045F0008051B948FDF70CFD87E2C7A1BA48FBF727
:1046000041FE60B9B948FBF74BFEB4490860084663
:104610000168C2A003F020FB01F01CF975E2C2A101
:10462000B148FBF72FFE60B9B048FBF739FEAB4944
:10463000086008460168BDA003F00EFB00F06AFBAD
:1046400063E2BDA1A848FBF71DFE68B9A748FBF7C8
:1046500027FEA249086008460168B9A003F0FCFAE9
:10466000BB4801F0B9FA50E2BAA19F48FBF70AFE35
:1046700070B99E48FBF714FE984908600846016827
:10468000B6A003F0E9FA9549087803F07BF93CE21B
:10469000B6A19548FBF7F6FDC8B99448FBF700FEB4
:1046A0008E49086008460168B1A003F0D5FA8B482E
:1046B0000068012805D1012210219048FDF7A8FCCF
:1046C00023E2002210218D48FDF7A2FC1DE2ABA1E0
:1046D0008548FBF7D7FD60B98448FBF7E1FD7F49CA
:1046E000086008460168A8A003F0B6FA01F0E4FAF1
:1046F0000BE2AAA17C48FBF7C5FDC0B97B48FBF7DC
:10470000CFFD7649086008460168A6A003F0A4FA28
:104710007248008881B24FF47A730122A548FDF7F0
:1047200083FC06463146A4A003F096FAEDE1A4A16D
:104730006D48FBF7A7FD70B96C48FBF7B1FD674901
:10474000086008460168A0A003F086FA6348007874
:10475000A1490870D9E1A1A16348FBF793FD50B9C5
:104760006248FBF79DFD5D490860084601689CA012
:1047700003F072FAC9E19DA15B48FBF783FDC8B95C
:104780005A48FBF78DFD554908600846016899A015
:1047900003F062FA51480068012805D10122802106
:1047A0005648FDF735FCB0E1002280215348FDF763
:1047B0002FFCAAE193A14C48FBF764FDF0B94B48EC
:1047C000FBF76EFD45490860084601688EA003F0BE
:1047D00043FAFCF72BFB8F4890ED000A8EA002F005
:1047E000B1FD8F4890ED000A8EA002F0ABFD8F481E
:1047F00090ED000A8EA002F0A5FD86E18EA13A4858
:10480000FBF740FD30B98EA001F0FEFC002000F067
:1048100021FE7AE18EA13448FBF734FDC0B98FA0A8
:1048200001F0F2FC3148FBF73BFD2C4908600846DB
:10483000008881B20A2301225E48FDF7F5FB18B912
:104840008BA001F0E1FC60E18CA001F0DDFC5CE1FB
:104850008DA12548FBF716FDD0B98FA001F0D4FC3F
:104860002248FBF71DFD1D4908609148FBF718FD24
:10487000904908600846007801900A200090174887
:10488000008881B2012301AA4A48FDF723FE3CE1DA
:1048900089A11548FBF7F6FCB8B98AA001F0B4FC71
:1048A0001248FBF7FDFC0D4908600A2000900846FD
:1048B000008881B2012301AA3E48FDF78FFC9DF8D4
:1048C000041085A003F014FA1FE185A10648FBF748
:1048D000D9FC00B908E10DE100000240E000002031
:1048E00059000020707772001D4800203D480020CC
:1048F000EFF0E8EDFFEB207077723A000010024015
:10490000570000205800002061646600EFF0E8EDD9
:10491000FFEB206164663A006D656D00EFF0E8ED35
:10492000FFEB206D656D3A004D534700EFF0E8ED69
:10493000FFEB204D53473A0049445F534552560020
:10494000EFF0E8EDFFEB2049445F534552563A0043
:10495000F86E00207370693200000000EFF0E8ED9F
:10496000FFEB20737069323A000000006E73730031
:10497000EFF0E8EDFFEB206E73733A006574685F4B
:10498000696E697400000000EFF0E8EDFFEB206550
:1049900074685F696E69743A000000006932635F91
:1049A00061647200EFF0E8EDFFEB206932635F6154
:1049B00064723A00400200206932633A000000004D
:1049C0007374617274000000EFF0E8EDFFEB207388
:1049D000746172743A000000D800002070776D0096
:1049E000EFF0E8EDFFEB2070776D3A0070777264BE
:1049F0006E000000EFF0E8EDFFEB20707772646E60
:104A00003A00000061646300EFF0E8EDFFEB206125
:104A100064633A0094000020553132563A00000099
:104A200098000020553556203A0000009C000020D8
:104A3000553356333A00000068656C700000000082
:104A4000EFF0E8EDFFEB2068656C700D0A000000E8
:104A50006932635F7374617475730000EFF0E8EDA1
:104A6000FFEB206932635F7374617475730D0A0024
:104A70006932635F4F4B0D0A000000006932635FCB
:104A80006572726F720D0A006932635F7472616ED3
:104A9000736D697400000000EFF0E8EDFFEB206932
:104AA00032635F7472616E736D69740D0A00000089
:104AB00005490020DC0000206932635F726563698C
:104AC00076650000EFF0E8EDFFEB206932635F727E
:104AD00065636976650D0A00646174613D000000DC
:104AE000696E666F0000000034A001F08DFB02F0DB
:104AF000EFFC0AE035A13748FBF7C4FB28B936A024
:104B000001F082FB002000F0A5FC002403E000205F
:104B100030490855641C202CF9D3002403E0002000
:104B200031490855641CC82CF9D3002403E0002047
:104B30002E490855641CC82CF9D3002403E000203A
:104B40002B490855641CC82CF9D39FED2A0A2A4822
:104B500080ED000A00202949087029490860294988
:104B6000087000242849087028490860284908600E
:104B700028490870284908602849087028490860B1
:104B800028490870284908602849086028490870A1
:104B90002849087020201449087014490870002022
:104BA0002549088018480078012804D11548007864
:104BB000012800D100BF214800687CBDEFF0E8ED7E
:104BC000FFEB20696E666F0D0A0000006D656E7563
:104BD000000000001D480020EFF0E8EDFFEB206D25
:104BE000656E750D0A0000003D4800200549002053
:104BF00054470020000000008800002066000020CC
:104C00006000002064000020650000206C0000208F
:104C1000700000207C000020740000207D00002037
:104C2000680000207E000020780000208000002026
:104C300085000020840000205C000020DC000020B3
:104C400010B52F48006864281BD22E480068C0B9F0
:104C5000012251032C48FDF7DBF900224FF480417B
:104C60002948FDF7D5F900224FF400412648FDF709
:104C7000CFF90120234908602448006840002349F7
:104C800008601F480068C82816D92148006898B9EC
:104C900000224FF400511C48FDF7BAF9012291039C
:104CA0001948FDF7B5F900224FF400411648FDF709
:104CB000AFF901201649086011480068B0F5C87FB7
:104CC00010D900224FF400510F48FDF7A1F900223E
:104CD0004FF480410C48FDF79BF90122D1030A48AB
:104CE000FDF796F906480068B0F5FA7F06D900206E
:104CF00003490860034908600549086010BD0000C9
:104D0000000000200C00002000080240C400002029
:104D10001000002070B5002500241DA001F074FAD9
:104D200000BF31E029461EA002F096FF05EB4500CA
:104D300000EBC5101C4A02EB0010816A1BA002F0B8
:104D40008BFF002412E021461DA002F085FF05EB39
:104D5000450000EBC510144A02EB0010303000EBA8
:104D6000441041681BA002F077FF641C05EB45006E
:104D700000EBC5100C4901EB0010D0E90A2100201E
:104D8000A21A8841DFD36D1C022DCBD370BD000069
:104D90002D2D2D2D2D2D2D2D2D2D0D0A000000003A
:104DA00053454E4445523A00104A0020D7E8F1EBF3
:104DB000EE20EAE2E8F2E0EDF6E8E93A0000000071
:104DC000EDEEECE5F020EAE2E8F2E0EDF6E8E83AB4
:104DD00000000000434D443A000000001FB50020D1
:104DE00000900190029003902D482E490860002009
:104DF00048604FF080712B4881600121016101768C
:104E0000002180F82010C162274981620021C16021
:104E10000521C161012180F830104161FCF788FC57
:104E200008B1FCF7EDFA002000900120019000206D
:104E3000029069461B48FCF7E5FA08B1FCF7E0FA76
:104E4000012000900220019069461648FCF7DAFA2A
:104E500008B1FCF7D5FA02200090032001906946C2
:104E60001048FCF7CFFA08B1FCF7CAFA032000900B
:104E70000420019069460B48FCF7C4FA08B1FCF71E
:104E8000BFFA0A480090052001900620029069466A
:104E90000448FCF7B7FA08B1FCF7B2FA1FBD0000EE
:104EA00000200140980100200100000F12000010B6
:104EB00008B500BF002000901248006840F4800050
:104EC000104908600846006800F48000009000BFA8
:104ED00000BF002211463820FDF738FC3820FDF7CE
:104EE00025FC002211464520FDF730FC4520FDF74A
:104EF0001DFC002211464620FDF728FC4620FDF748
:104F000015FC08BD3038024000B587B0142102A856
:104F1000FBF7A6F900BF002001905148006840F05F
:104F200004004F4908600846006800F00400019042
:104F300000BF00BF00BF002001900846006840F09D
:104F4000010008600846006800F00100019000BF01
:104F500000BF00BF002001900846006840F002003A
:104F600008600846006800F00200019000BF00BF22
:104F700000BF002001900846006840F01000086063
:104F80000846006800F01000019000BF00BF00BF9D
:104F9000002001900846006840F0080008600846BC
:104FA000006800F00800019000BF00BF4EF23320FF
:104FB00002900120039000200490059002A9294846
:104FC000FCF734FF40F29B10029001200390002078
:104FD0000490059002A92448FCF728FF4FF498603C
:104FE00002900120039000200490059002A91F4820
:104FF000FCF71CFF4FF60360029001200390002095
:105000000490059002A91A48FCF710FF4FF4C05015
:1050100002900120039000200490059002A91548F9
:10502000FCF704FF1420029000200390049002A9D2
:105030000C48FCF7FBFE4FF4807002900E48039082
:105040000120049002A90A48FCF7F0FE0022114654
:105050001720FDF77BFB1720FDF768FB07B000BDAD
:1050600030380240000802400010024000040240B4
:10507000000C0240000002400000211010B50E4854
:105080000E4908604FF48270486000210B4881602F
:10509000C160016141614FF4007181610821C1610A
:1050A00000210162416281620A21C162FDF702FFB3
:1050B00008B1FCF7A5F910BD003C0040EC0200204F
:1050C00010B50B480B4908604FF4E13048600021EF
:1050D00008488160C16001610C214161002181614A
:1050E000C161FEF713FA08B1FCF78AF910BD0000A0
:1050F00000100140F403002010B50B480B49086074
:105100004FF416504860002108488160C160016179
:105110000C21416100218161C161FEF7F7F908B1FD
:10512000FCF76EF910BD000000140140740400206B
:1051300010B52DED088BBBEE090AAA4880ED090ACF
:10514000BBEE080A80ED0A0ABBEE070A80ED0B0AE7
:10515000BBEE060A80ED0C0ABBEE050A80ED0D0AD7
:10516000BBEE040A80ED0F0ABAEE0E0A80ED180AB3
:10517000BAEE040A80ED290AB9EE040A80ED460A67
:105180009FED990A80ED820AB1EE040A80EDE60AED
:10519000B2EE000A00F5806080ED4A0A002411E0BA
:1051A000A4F1090000EB4000904901EB400000EE43
:1051B000100AB8EEC08A8B4800EB840080ED008AAC
:1051C000601C84B2092CEBDB092420E0A4F1090067
:1051D000FBF7FBF941EC1B0B9FED850B53EC102B00
:1051E000FBF712F941EC1A0B9FED830B53EC102BDC
:1051F000FBF763F841EC190BFBF718FA08EE100AFD
:10520000784800EB840080ED008A601C84B2102C8A
:10521000DCDB0F2411E0A4F10F0000EB8000C838A4
:1052200000EE100AB8EEC00AB0EE408A6D4800EBFE
:10523000840080ED008A601C84B2192CEBDB1824FA
:1052400020E0A4F11800FBF7C0F941EC1B0B9FED27
:105250006C0B53EC102BFBF7D7F841EC1A0B9FEDBE
:105260006A0B53EC102BFBF728F841EC190BFBF7FA
:10527000DDF908EE100A5B4800EB840080ED008A3F
:10528000601C84B22A2CDCDB292420E0A4F1290054
:10529000FBF79BF941EC1B0B9FED5D0B53EC102BC7
:1052A000FBF7B2F841EC1A0B9FED5B0B53EC102BA4
:1052B000FBF703F841EC190BFBF7B8F908EE100AFD
:1052C000484800EB840080ED008A601C84B2472CC3
:1052D000DCDB462420E0A4F14600FBF776F941EC44
:1052E0001B0B9FED4F0B53EC102BFBF78DF841EC94
:1052F0001A0B9FED4D0B53EC102BFAF7DEFF41EC30
:10530000190BFBF793F908EE100A364800EB8400FE
:1053100080ED008A601C84B2832CDCDB822420E0D8
:10532000A4F18200FBF751F941EC1B0B9FED400B00
:1053300053EC102BFBF768F841EC1A0B9FED3E0B7A
:1053400053EC102BFAF7B9FF41EC190BFBF76EF990
:1053500008EE100A234800EB840080ED008A601CF0
:1053600084B2E72CDCDBE62420E0A4F1E600FBF7C6
:105370002CF941EC1B0B9FED320B53EC102BFBF780
:1053800043F841EC1A0B9FED300B53EC102BFAF75E
:1053900094FF41EC190BFBF749F908EE100A11488C
:1053A00000EB840080ED008A601C84B2B4F5A77F16
:1053B000DBDB00240FE00B4800EB840090ED000ADB
:1053C000F2EE040A80EE201A064800EB840080ED1D
:1053D000001A601C84B2B4F5A77FECDBBDEC088B2F
:1053E00010BD00005875002000000000A8FDFFFF60
:1053F0009A999999999920400000000000406FC047
:105400009A999999999905400000000000C062C0DE
:10541000333333333333FB3F00000000000059C007
:105420008FC2F5285C8FEA3F00000000000049C0F1
:10543000000000000000E03F00000000000000004D
:105440008FC2F5285C8FD23F000000000000494069
:1054500000BFFEE770B50546002403E037A000F06A
:10546000D3FE641C142CF9DB002403E034A000F00C
:10547000CBFE641C142CF9DB30A000F0C5FE31A07B
:1054800000F0C2FE2DA000F0BFFE3AA000F0BCFE6E
:105490003AA000F0B9FE3CA000F0B6FE42A000F039
:1054A000B3FE46A000F0B0FE49A000F0ADFE4DA056
:1054B00000F0AAFE50A000F0A7FE5BA000F0A4FE42
:1054C00063A000F0A1FE6CA000F09EFE71A000F0B1
:1054D0009BFE76A000F098FE79A000F095FE81A0DA
:1054E00000F092FE884800F08FFE88A000F08CFE4D
:1054F0008BA000F089FE8FA000F086FE92A000F045
:1055000083FE96A000F080FE9BA000F07DFEA1A08F
:1055100000F07AFE09A000F077FE08A000F074FE0B
:10552000A8A000F071FE05A000F06EFE03A000F040
:105530006BFE02A000F068FE70BD00000D000000D0
:105540002D0000002E2E2E2E2E2E2E2E2E2E5465A9
:10555000726D696E616C20D2E5F1F2EEE2EEE92047
:10556000EFEBE0F2FB2E2E2E2E2E2E2E2E2E0D0ADF
:10557000000000004D454E55203A0D002D2D2D2DDB
:105580002D2D2D0D00000000D0E0F1F8E8F4F0EE34
:10559000E2EAE020F1F2F0F3EAF2F3F0FB20EAEEC7
:1055A000ECE0EDE4FB3A0D007E202D20F1F2E0F07E
:1055B000F2EEE2FBE920E1E0E9F20D0031202D20DE
:1055C000E0E4F0E5F120E0E1EEEDE5EDF2E00D00E4
:1055D0003B2D20EAEEEDE5F620EFE0F7EAE8200DBE
:1055E000000000002E2E2E2E2E2E2E2E2E2E2E2E93
:1055F0002E2E200D000000002D2D2D2D2D2D2D2DBA
:105600002D2D2D2D2D2D2D2D2D2D2D2D2D2D2D2DCA
:105610002D2D2D2D2D2D2D2D2D2D2D2D2D2D2D2DBA
:105620002D2D2D2D2D0D0A00495020203A313932D3
:105630002E3136382E312E313633202D2049502050
:10564000E0E4F0E5F120202020E1EBEEEAE00D00BF
:10565000504F52543A323035342020202020202020
:105660002020202D20EDEEECE5F020EFEEF0F2E032
:1056700020E1EBEEEAE00D007E302068656C703BC7
:10568000202D20F2E5EAF3F9E5E520ECE5EDFE0D4D
:10569000000000007E3020696E666F3B202D20E800
:1056A000EDF4EEF0ECE0F6E8FF200D007E30206433
:1056B0006163315F696E69743B202D200D0000002D
:1056C0007E3020646163315F723A303B2020202DB0
:1056D00020F7F2E5EDE8E520F0E5E3E8F1F2F0E0AF
:1056E0000D0000007E3020646163315F773A302E18
:1056F000303B202D20E7E0EFE8F1FC20F0E5E3E887
:10570000F1F2F0E00D000000F07D00087E30206432
:105710006163315F696E666F3A303B200D000000B7
:105720007E3020646163315F696E69743A303B207A
:105730000D0000007E3020646163315F7068795F26
:1057400077723A303B200D007E3020646163315F18
:105750007068795F696E666F3B200D007E30206C4B
:105760006D6B5F73796E633B202D2073796E6320C0
:10577000EDE0204C4D4B0D007E3020696E69745F6A
:105780006C6D6B3B202D20696E697420EDE0204C20
:105790004D4B0D002D2D2D2D2D2D2D2D2D2D2D2D48
:1057A0002D2D2D2D2D2D2D2D2D2D2D2D2D2D2D2D29
:1057B0002D2D2D2D2D2D2D2D2D2D2D2D2D2D2D0D39
:1057C000000000002B2B2B2B2B2B2B2B2B2B2B2BD5
:1057D0002B2B2B2B2B2B2B2B0D00000070470000AD
:1057E00010B504211048FCF70BFC1049087008465E
:1057F0000078012809D10E48007830B90DA000F0DA
:1058000003FD01200A4908700CE00848007848B9F7
:1058100007480078012805D10AA000F0F5FC002017
:105820000349087010BD0000000802405B00002022
:10583000ED000020C7E0F5E2E0F220D4C0CFD72190
:105840000D0A0000C0E2E0F0E8FF20D4C0CFD7216D
:105850000D0A000070B50024002513A000F0D4FC50
:1058600000BF19E0042D16D21048005D0A2805DAA1
:105870000E48015D0EA002F053FA04E00B48015DF2
:105880000CA002F04DFA032D04D107A000F0BCFCDF
:10589000002500E06D1C641CB4F5806FE2D302A00B
:1058A00000F0B2FC70BD00000D0A0000D06A0020BC
:1058B0002020000020000000704700007CB5044656
:1058C0000D461646164800681821B0FBF1F0154940
:1058D000B0FBF1F04FF47A71484301906068B0F585
:1058E000827F0DD12B46002280212046009600F0B9
:1058F0001BF898B1606D40F02000606503207CBD0E
:1059000000BF019800B908E00198401E019020688E
:105910008068C0F3C0100028F3D100BF0020EEE77C
:105920009001002040420F002DE9F04104460E4650
:1059300017461D46DDF818803EE0681CD8B3FCF71A
:105940006DFBA0EB0800A84200D2A5BB2068406810
:1059500020F0E000216848606068B0F5827F0DD1DA
:10596000A068B0F5004F03D0A068B0F5806F05D1F6
:105970002068006820F0400021680860A06AB0F547
:10598000005F0DD100BF2068006820F4005021683E
:1059900008602068006840F400502168086000BF7B
:1059A000012084F8510000BF002084F8500000BF9F
:1059B0000320BDE8F081FFE7206880683040B042F6
:1059C00001D1012000E00020B842B6D10020F0E76C
:1059D00070B5002500244F4890ED000ADFED4E0A17
:1059E00020EE200ABCEEC00A10EE104A21464BA061
:1059F00002F05EF94DA000F037FC00F013FD6420CA
:105A0000FBF7B4FC4A4890ED000ADFED430A20EEB4
:105A1000200ABCEEC00A10EE104A214645A002F052
:105A200047F942A000F020FC00F0FCFC6420FBF7EA
:105A30009DFC444890ED000ADFED370A20EE200A75
:105A4000BCEEC00A10EE104A21463FA002F030F929
:105A500036A000F009FC00F0E5FC6420FBF786FCB2
:105A60003D4801783DA002F023F930A000F0FCFB96
:105A700000F0D8FC6420FBF779FC3C4801783CA09E
:105A800002F016F929A000F0EFFB00F0CBFC642037
:105A9000FBF76CFC3B4801783BA002F009F923A01E
:105AA00000F0E2FB00F0BEFC6420FBF75FFC3B482B
:105AB00001783BA002F0FCF81CA000F0D5FB00F040
:105AC000B1FC6420FBF752FC3948017839A002F0A0
:105AD000EFF816A000F0C8FB00F0A4FC6420FBF770
